{
  "_format": "hh-sol-artifact-1",
  "contractName": "RouteProcessor3_2",
  "sourceName": "contracts/RouteProcessor3_2.sol",
  "abi": [
    {
      "inputs": [
        {
          "internalType": "address",
          "name": "_bentoBox",
          "type": "address"
        },
        {
          "internalType": "address[]",
          "name": "priviledgedUserList",
          "type": "address[]"
        }
      ],
      "stateMutability": "nonpayable",
      "type": "constructor"
    },
    {
      "anonymous": false,
      "inputs": [
        {
          "indexed": true,
          "internalType": "address",
          "name": "previousOwner",
          "type": "address"
        },
        {
          "indexed": true,
          "internalType": "address",
          "name": "newOwner",
          "type": "address"
        }
      ],
      "name": "OwnershipTransferred",
      "type": "event"
    },
    {
      "anonymous": false,
      "inputs": [
        {
          "indexed": true,
          "internalType": "address",
          "name": "from",
          "type": "address"
        },
        {
          "indexed": false,
          "internalType": "address",
          "name": "to",
          "type": "address"
        },
        {
          "indexed": true,
          "internalType": "address",
          "name": "tokenIn",
          "type": "address"
        },
        {
          "indexed": true,
          "internalType": "address",
          "name": "tokenOut",
          "type": "address"
        },
        {
          "indexed": false,
          "internalType": "uint256",
          "name": "amountIn",
          "type": "uint256"
        },
        {
          "indexed": false,
          "internalType": "uint256",
          "name": "amountOutMin",
          "type": "uint256"
        },
        {
          "indexed": false,
          "internalType": "uint256",
          "name": "amountOut",
          "type": "uint256"
        }
      ],
      "name": "Route",
      "type": "event"
    },
    {
      "inputs": [],
      "name": "bentoBox",
      "outputs": [
        {
          "internalType": "contract IBentoBoxMinimal",
          "name": "",
          "type": "address"
        }
      ],
      "stateMutability": "view",
      "type": "function"
    },
    {
      "inputs": [],
      "name": "owner",
      "outputs": [
        {
          "internalType": "address",
          "name": "",
          "type": "address"
        }
      ],
      "stateMutability": "view",
      "type": "function"
    },
    {
      "inputs": [],
      "name": "pause",
      "outputs": [],
      "stateMutability": "nonpayable",
      "type": "function"
    },
    {
      "inputs": [
        {
          "internalType": "address",
          "name": "tokenIn",
          "type": "address"
        },
        {
          "internalType": "uint256",
          "name": "amountIn",
          "type": "uint256"
        },
        {
          "internalType": "address",
          "name": "tokenOut",
          "type": "address"
        },
        {
          "internalType": "uint256",
          "name": "amountOutMin",
          "type": "uint256"
        },
        {
          "internalType": "address",
          "name": "to",
          "type": "address"
        },
        {
          "internalType": "bytes",
          "name": "route",
          "type": "bytes"
        }
      ],
      "name": "processRoute",
      "outputs": [
        {
          "internalType": "uint256",
          "name": "amountOut",
          "type": "uint256"
        }
      ],
      "stateMutability": "payable",
      "type": "function"
    },
    {
      "inputs": [],
      "name": "renounceOwnership",
      "outputs": [],
      "stateMutability": "nonpayable",
      "type": "function"
    },
    {
      "inputs": [],
      "name": "resume",
      "outputs": [],
      "stateMutability": "nonpayable",
      "type": "function"
    },
    {
      "inputs": [
        {
          "internalType": "address",
          "name": "user",
          "type": "address"
        },
        {
          "internalType": "bool",
          "name": "priviledge",
          "type": "bool"
        }
      ],
      "name": "setPriviledge",
      "outputs": [],
      "stateMutability": "nonpayable",
      "type": "function"
    },
    {
      "inputs": [
        {
          "internalType": "address",
          "name": "newOwner",
          "type": "address"
        }
      ],
      "name": "transferOwnership",
      "outputs": [],
      "stateMutability": "nonpayable",
      "type": "function"
    },
    {
      "inputs": [
        {
          "internalType": "address payable",
          "name": "transferValueTo",
          "type": "address"
        },
        {
          "internalType": "uint256",
          "name": "amountValueTransfer",
          "type": "uint256"
        },
        {
          "internalType": "address",
          "name": "tokenIn",
          "type": "address"
        },
        {
          "internalType": "uint256",
          "name": "amountIn",
          "type": "uint256"
        },
        {
          "internalType": "address",
          "name": "tokenOut",
          "type": "address"
        },
        {
          "internalType": "uint256",
          "name": "amountOutMin",
          "type": "uint256"
        },
        {
          "internalType": "address",
          "name": "to",
          "type": "address"
        },
        {
          "internalType": "bytes",
          "name": "route",
          "type": "bytes"
        }
      ],
      "name": "transferValueAndprocessRoute",
      "outputs": [
        {
          "internalType": "uint256",
          "name": "amountOut",
          "type": "uint256"
        }
      ],
      "stateMutability": "payable",
      "type": "function"
    },
    {
      "inputs": [
        {
          "internalType": "int256",
          "name": "amount0Delta",
          "type": "int256"
        },
        {
          "internalType": "int256",
          "name": "amount1Delta",
          "type": "int256"
        },
        {
          "internalType": "bytes",
          "name": "data",
          "type": "bytes"
        }
      ],
      "name": "uniswapV3SwapCallback",
      "outputs": [],
      "stateMutability": "nonpayable",
      "type": "function"
    },
    {
      "stateMutability": "payable",
      "type": "receive"
    }
  ],
  "bytecode": "0x60a06040526001600260146101000a81548160ff021916908360ff1602179055506001600260156101000a81548160ff021916908360ff1602179055503480156200004957600080fd5b5060405162004aa538038062004aa583398181016040528101906200006f91906200045f565b6200008f62000083620001a560201b60201c565b620001ad60201b60201c565b8173ffffffffffffffffffffffffffffffffffffffff1660808173ffffffffffffffffffffffffffffffffffffffff16815250506001600260006101000a81548173ffffffffffffffffffffffffffffffffffffffff021916908373ffffffffffffffffffffffffffffffffffffffff16021790555060005b81518110156200019c5760018060008484815181106200012d576200012c620004c5565b5b602002602001015173ffffffffffffffffffffffffffffffffffffffff1673ffffffffffffffffffffffffffffffffffffffff16815260200190815260200160002060006101000a81548160ff021916908315150217905550808062000193906200052d565b91505062000108565b5050506200057b565b600033905090565b60008060009054906101000a900473ffffffffffffffffffffffffffffffffffffffff169050816000806101000a81548173ffffffffffffffffffffffffffffffffffffffff021916908373ffffffffffffffffffffffffffffffffffffffff1602179055508173ffffffffffffffffffffffffffffffffffffffff168173ffffffffffffffffffffffffffffffffffffffff167f8be0079c531659141344cd1fd0a4f28419497f9722a3daafe3b4186f6b6457e060405160405180910390a35050565b6000604051905090565b600080fd5b600080fd5b600073ffffffffffffffffffffffffffffffffffffffff82169050919050565b6000620002b28262000285565b9050919050565b620002c481620002a5565b8114620002d057600080fd5b50565b600081519050620002e481620002b9565b92915050565b600080fd5b6000601f19601f8301169050919050565b7f4e487b7100000000000000000000000000000000000000000000000000000000600052604160045260246000fd5b6200033a82620002ef565b810181811067ffffffffffffffff821117156200035c576200035b62000300565b5b80604052505050565b60006200037162000271565b90506200037f82826200032f565b919050565b600067ffffffffffffffff821115620003a257620003a162000300565b5b602082029050602081019050919050565b600080fd5b6000620003cf620003c98462000384565b62000365565b90508083825260208201905060208402830185811115620003f557620003f4620003b3565b5b835b818110156200042257806200040d8882620002d3565b845260208401935050602081019050620003f7565b5050509392505050565b600082601f830112620004445762000443620002ea565b5b815162000456848260208601620003b8565b91505092915050565b600080604083850312156200047957620004786200027b565b5b60006200048985828601620002d3565b925050602083015167ffffffffffffffff811115620004ad57620004ac62000280565b5b620004bb858286016200042c565b9150509250929050565b7f4e487b7100000000000000000000000000000000000000000000000000000000600052603260045260246000fd5b7f4e487b7100000000000000000000000000000000000000000000000000000000600052601160045260246000fd5b6000819050919050565b60006200053a8262000523565b91507fffffffffffffffffffffffffffffffffffffffffffffffffffffffffffffffff82141562000570576200056f620004f4565b5b600182019050919050565b6080516144ba620005eb60003960008181610404015281816112690152818161212301528181612174015281816121c3015281816122720152818161233e015281816123d301528181612410015281816124a70152818161253d015281816125dc01526126ad01526144ba6000f3fe6080604052600436106100955760003560e01c80638da5cb5b116100595780638da5cb5b1461014157806393b3774c1461016c5780639a1f34061461019c578063f2fde38b146101c5578063fa461e33146101ee5761009c565b8063046f7da2146100a15780632646478b146100b85780636b2ace87146100e8578063715018a6146101135780638456cb591461012a5761009c565b3661009c57005b600080fd5b3480156100ad57600080fd5b506100b6610217565b005b6100d260048036038101906100cd9190612c07565b610305565b6040516100df9190612cbf565b60405180910390f35b3480156100f457600080fd5b506100fd610402565b60405161010a9190612d39565b60405180910390f35b34801561011f57600080fd5b50610128610426565b005b34801561013657600080fd5b5061013f61043a565b005b34801561014d57600080fd5b50610156610527565b6040516101639190612d63565b60405180910390f35b61018660048036038101906101819190612dbc565b610550565b6040516101939190612cbf565b60405180910390f35b3480156101a857600080fd5b506101c360048036038101906101be9190612ec6565b610722565b005b3480156101d157600080fd5b506101ec60048036038101906101e79190612f06565b610785565b005b3480156101fa57600080fd5b5061021560048036038101906102109190612fc9565b610809565b005b61021f610527565b73ffffffffffffffffffffffffffffffffffffffff163373ffffffffffffffffffffffffffffffffffffffff1614806102a8575060011515600160003373ffffffffffffffffffffffffffffffffffffffff1673ffffffffffffffffffffffffffffffffffffffff16815260200190815260200160002060009054906101000a900460ff161515145b6102e7576040517f08c379a00000000000000000000000000000000000000000000000000000000081526004016102de906130c0565b60405180910390fd5b6001600260156101000a81548160ff021916908360ff160217905550565b60006001600260149054906101000a900460ff1660ff161461035c576040517f08c379a00000000000000000000000000000000000000000000000000000000081526004016103539061312c565b60405180910390fd5b6001600260159054906101000a900460ff1660ff16146103b1576040517f08c379a00000000000000000000000000000000000000000000000000000000081526004016103a890613198565b60405180910390fd5b60028060146101000a81548160ff021916908360ff1602179055506103da878787878787610977565b90506001600260146101000a81548160ff021916908360ff1602179055509695505050505050565b7f000000000000000000000000000000000000000000000000000000000000000081565b61042e610f1e565b6104386000610f9c565b565b610442610527565b73ffffffffffffffffffffffffffffffffffffffff163373ffffffffffffffffffffffffffffffffffffffff1614806104cb575060011515600160003373ffffffffffffffffffffffffffffffffffffffff1673ffffffffffffffffffffffffffffffffffffffff16815260200190815260200160002060009054906101000a900460ff161515145b61050a576040517f08c379a0000000000000000000000000000000000000000000000000000000008152600401610501906130c0565b60405180910390fd5b60028060156101000a81548160ff021916908360ff160217905550565b60008060009054906101000a900473ffffffffffffffffffffffffffffffffffffffff16905090565b60006001600260149054906101000a900460ff1660ff16146105a7576040517f08c379a000000000000000000000000000000000000000000000000000000000815260040161059e9061312c565b60405180910390fd5b6001600260159054906101000a900460ff1660ff16146105fc576040517f08c379a00000000000000000000000000000000000000000000000000000000081526004016105f390613198565b60405180910390fd5b60028060146101000a81548160ff021916908360ff1602179055506000808a73ffffffffffffffffffffffffffffffffffffffff168a60405161063e906131e9565b60006040518083038185875af1925050503d806000811461067b576040519150601f19603f3d011682016040523d82523d6000602084013e610680565b606091505b50915091508181604051602001610697919061326d565b604051602081830303815290604052906106e7576040517f08c379a00000000000000000000000000000000000000000000000000000000081526004016106de91906132c8565b60405180910390fd5b506106f6898989898989610977565b925050506001600260146101000a81548160ff021916908360ff16021790555098975050505050505050565b61072a610f1e565b80600160008473ffffffffffffffffffffffffffffffffffffffff1673ffffffffffffffffffffffffffffffffffffffff16815260200190815260200160002060006101000a81548160ff0219169083151502179055505050565b61078d610f1e565b600073ffffffffffffffffffffffffffffffffffffffff168173ffffffffffffffffffffffffffffffffffffffff1614156107fd576040517f08c379a00000000000000000000000000000000000000000000000000000000081526004016107f49061335c565b60405180910390fd5b61080681610f9c565b50565b600260009054906101000a900473ffffffffffffffffffffffffffffffffffffffff1673ffffffffffffffffffffffffffffffffffffffff163373ffffffffffffffffffffffffffffffffffffffff1614610899576040517f08c379a0000000000000000000000000000000000000000000000000000000008152600401610890906133ee565b60405180910390fd5b6001600260006101000a81548173ffffffffffffffffffffffffffffffffffffffff021916908373ffffffffffffffffffffffffffffffffffffffff160217905550600082828101906108ec919061340e565b905060008086136108fd57846108ff565b855b905060008113610944576040517f08c379a000000000000000000000000000000000000000000000000000000000815260040161093b906134ad565b60405180910390fd5b61096f33828473ffffffffffffffffffffffffffffffffffffffff166110609092919063ffffffff16565b505050505050565b60008073eeeeeeeeeeeeeeeeeeeeeeeeeeeeeeeeeeeeeeee73ffffffffffffffffffffffffffffffffffffffff168873ffffffffffffffffffffffffffffffffffffffff1614610a40578773ffffffffffffffffffffffffffffffffffffffff166370a08231336040518263ffffffff1660e01b81526004016109fa9190612d63565b602060405180830381865afa158015610a17573d6000803e3d6000fd5b505050506040513d601f19601f82011682018060405250810190610a3b91906134e2565b610a42565b475b9050600073eeeeeeeeeeeeeeeeeeeeeeeeeeeeeeeeeeeeeeee73ffffffffffffffffffffffffffffffffffffffff168773ffffffffffffffffffffffffffffffffffffffff1614610b0c578673ffffffffffffffffffffffffffffffffffffffff166370a08231866040518263ffffffff1660e01b8152600401610ac69190612d63565b602060405180830381865afa158015610ae3573d6000803e3d6000fd5b505050506040513d601f19601f82011682018060405250810190610b0791906134e2565b610b25565b8473ffffffffffffffffffffffffffffffffffffffff16315b90506000610b32856110e6565b90505b610b3e81611107565b15610c34576000610b4e82611123565b905060018160ff161415610b6a57610b658261113a565b610c2e565b60028160ff161415610b8557610b80828b6111e6565b610c2d565b60038160ff161415610b9f57610b9a82611204565b610c2c565b60048160ff161415610bb957610bb48261122d565b610c2b565b60058160ff161415610bd357610bce8261124b565b610c2a565b60068160ff161415610bee57610be98b83611372565b610c29565b6040517f08c379a0000000000000000000000000000000000000000000000000000000008152600401610c2090613581565b60405180910390fd5b5b5b5b5b5b50610b35565b600073eeeeeeeeeeeeeeeeeeeeeeeeeeeeeeeeeeeeeeee73ffffffffffffffffffffffffffffffffffffffff168b73ffffffffffffffffffffffffffffffffffffffff1614610cfc578a73ffffffffffffffffffffffffffffffffffffffff166370a08231336040518263ffffffff1660e01b8152600401610cb69190612d63565b602060405180830381865afa158015610cd3573d6000803e3d6000fd5b505050506040513d601f19601f82011682018060405250810190610cf791906134e2565b610cfe565b475b9050838a82610d0d91906135d0565b1015610d4e576040517f08c379a0000000000000000000000000000000000000000000000000000000008152600401610d4590613698565b60405180910390fd5b600073eeeeeeeeeeeeeeeeeeeeeeeeeeeeeeeeeeeeeeee73ffffffffffffffffffffffffffffffffffffffff168a73ffffffffffffffffffffffffffffffffffffffff1614610e16578973ffffffffffffffffffffffffffffffffffffffff166370a08231896040518263ffffffff1660e01b8152600401610dd09190612d63565b602060405180830381865afa158015610ded573d6000803e3d6000fd5b505050506040513d601f19601f82011682018060405250810190610e1191906134e2565b610e2f565b8773ffffffffffffffffffffffffffffffffffffffff16315b90508884610e3d91906135d0565b811015610e7f576040517f08c379a0000000000000000000000000000000000000000000000000000000008152600401610e769061372a565b60405180910390fd5b8381610e8b919061374a565b95508973ffffffffffffffffffffffffffffffffffffffff168c73ffffffffffffffffffffffffffffffffffffffff163373ffffffffffffffffffffffffffffffffffffffff167f2db5ddd0b42bdbca0d69ea16f234a870a485854ae0d91f16643d6f317d8b89948b8f8e8c604051610f07949392919061377e565b60405180910390a450505050509695505050505050565b610f266113f1565b73ffffffffffffffffffffffffffffffffffffffff16610f44610527565b73ffffffffffffffffffffffffffffffffffffffff1614610f9a576040517f08c379a0000000000000000000000000000000000000000000000000000000008152600401610f919061380f565b60405180910390fd5b565b60008060009054906101000a900473ffffffffffffffffffffffffffffffffffffffff169050816000806101000a81548173ffffffffffffffffffffffffffffffffffffffff021916908373ffffffffffffffffffffffffffffffffffffffff1602179055508173ffffffffffffffffffffffffffffffffffffffff168173ffffffffffffffffffffffffffffffffffffffff167f8be0079c531659141344cd1fd0a4f28419497f9722a3daafe3b4186f6b6457e060405160405180910390a35050565b6110e18363a9059cbb60e01b848460405160240161107f92919061382f565b604051602081830303815290604052907bffffffffffffffffffffffffffffffffffffffffffffffffffffffff19166020820180517bffffffffffffffffffffffffffffffffffffffffffffffffffffffff83818316178352505050506113f9565b505050565b60006040519050604081016040528181528151808301602083015250919050565b6000806000835191506020840151905080821092505050919050565b600081516001810190508051915080835250919050565b6000611145826114c1565b905060008173ffffffffffffffffffffffffffffffffffffffff166370a08231306040518263ffffffff1660e01b81526004016111829190612d63565b602060405180830381865afa15801561119f573d6000803e3d6000fd5b505050506040513d601f19601f820116820180604052508101906111c391906134e2565b905060008111156111d5576001810390505b6111e1833084846114d8565b505050565b60006111f1836114c1565b90506111ff833383856114d8565b505050565b6000479050611229823073eeeeeeeeeeeeeeeeeeeeeeeeeeeeeeeeeeeeeeee846114d8565b5050565b6000611238826114c1565b90506112478230836000611543565b5050565b6000611256826114c1565b9050600061126383611123565b905060007f000000000000000000000000000000000000000000000000000000000000000073ffffffffffffffffffffffffffffffffffffffff1663f7888aec84306040518363ffffffff1660e01b81526004016112c2929190613858565b602060405180830381865afa1580156112df573d6000803e3d6000fd5b505050506040513d601f19601f8201168201806040525081019061130391906134e2565b90506000811115611315576001810390505b60005b8260ff1681101561136b57600061132e86611627565b9050600061ffff8261ffff1685028161134a57611349613881565b5b049050808403935061135e87308884611543565b5050806001019050611318565b5050505050565b600061137d8261163e565b9050600061138a8361163e565b9050600061139784611123565b905060006113a485611655565b905060006113b186611655565b90506113e8333087878787878e73ffffffffffffffffffffffffffffffffffffffff1661166c90979695949392919063ffffffff16565b50505050505050565b600033905090565b600061145b826040518060400160405280602081526020017f5361666545524332303a206c6f772d6c6576656c2063616c6c206661696c65648152508573ffffffffffffffffffffffffffffffffffffffff166118399092919063ffffffff16565b905060008151148061147d57508080602001905181019061147c91906138c5565b5b6114bc576040517f08c379a00000000000000000000000000000000000000000000000000000000081526004016114b390613964565b60405180910390fd5b505050565b600081516014810190508051915080835250919050565b60006114e385611123565b905060005b8160ff1681101561153b5760006114fe87611627565b9050600061ffff8261ffff1686028161151a57611519613881565b5b049050808503945061152e88888884611543565b50508060010190506114e8565b505050505050565b600061154e85611123565b905060008160ff16141561156d5761156885858585611851565b611620565b60018160ff16141561158a5761158585858585611bce565b61161f565b60028160ff1614156115a7576115a285858585611e85565b61161e565b60038160ff1614156115c4576115bf858585856120bc565b61161d565b60048160ff1614156115e1576115dc85858585612689565b61161c565b6040517f08c379a0000000000000000000000000000000000000000000000000000000008152600401611613906139f6565b60405180910390fd5b5b5b5b5b5050505050565b600081516002810190508051915080835250919050565b600081516020810190508051915080835250919050565b600081516020810190508051915080835250919050565b60008873ffffffffffffffffffffffffffffffffffffffff16637ecebe00896040518263ffffffff1660e01b81526004016116a79190612d63565b602060405180830381865afa1580156116c4573d6000803e3d6000fd5b505050506040513d601f19601f820116820180604052508101906116e891906134e2565b90508873ffffffffffffffffffffffffffffffffffffffff1663d505accf898989898989896040518863ffffffff1660e01b815260040161172f9796959493929190613a4b565b600060405180830381600087803b15801561174957600080fd5b505af115801561175d573d6000803e3d6000fd5b5050505060008973ffffffffffffffffffffffffffffffffffffffff16637ecebe008a6040518263ffffffff1660e01b815260040161179c9190612d63565b602060405180830381865afa1580156117b9573d6000803e3d6000fd5b505050506040513d601f19601f820116820180604052508101906117dd91906134e2565b90506001826117ec91906135d0565b811461182d576040517f08c379a000000000000000000000000000000000000000000000000000000000815260040161182490613b2c565b60405180910390fd5b50505050505050505050565b606061184884846000856127c2565b90509392505050565b600061185c856114c1565b9050600061186986611123565b90506000611876876114c1565b905060008414611913573073ffffffffffffffffffffffffffffffffffffffff168673ffffffffffffffffffffffffffffffffffffffff1614156118e4576118df83858773ffffffffffffffffffffffffffffffffffffffff166110609092919063ffffffff16565b611912565b6119118684868873ffffffffffffffffffffffffffffffffffffffff1661288f909392919063ffffffff16565b5b5b6000808473ffffffffffffffffffffffffffffffffffffffff16630902f1ac6040518163ffffffff1660e01b8152600401606060405180830381865afa158015611961573d6000803e3d6000fd5b505050506040513d601f19601f820116820180604052508101906119859190613bce565b506dffffffffffffffffffffffffffff1691506dffffffffffffffffffffffffffff1691506000821180156119ba5750600081115b6119f9576040517f08c379a00000000000000000000000000000000000000000000000000000000081526004016119f090613c6d565b60405180910390fd5b60008060018660ff1614611a0e578284611a11565b83835b91509150818973ffffffffffffffffffffffffffffffffffffffff166370a08231896040518263ffffffff1660e01b8152600401611a4f9190612d63565b602060405180830381865afa158015611a6c573d6000803e3d6000fd5b505050506040513d601f19601f82011682018060405250810190611a9091906134e2565b611a9a919061374a565b975060006103e589611aac9190613c8d565b90506000816103e885611abf9190613c8d565b611ac991906135d0565b8383611ad59190613c8d565b611adf9190613ce7565b905060008060018a60ff1614611af757826000611afb565b6000835b915091508a73ffffffffffffffffffffffffffffffffffffffff1663022c0d9f83838c600067ffffffffffffffff811115611b3957611b38612adc565b5b6040519080825280601f01601f191660200182016040528015611b6b5781602001600182028036833780820191505090505b506040518563ffffffff1660e01b8152600401611b8b9493929190613d62565b600060405180830381600087803b158015611ba557600080fd5b505af1158015611bb9573d6000803e3d6000fd5b50505050505050505050505050505050505050565b6000611bd9856114c1565b9050600080611be787611123565b60ff161190506000611bf8876114c1565b90503073ffffffffffffffffffffffffffffffffffffffff168673ffffffffffffffffffffffffffffffffffffffff1614611cc9573373ffffffffffffffffffffffffffffffffffffffff168673ffffffffffffffffffffffffffffffffffffffff1614611c9b576040517f08c379a0000000000000000000000000000000000000000000000000000000008152600401611c9290613e20565b60405180910390fd5b611cc83330868873ffffffffffffffffffffffffffffffffffffffff1661288f909392919063ffffffff16565b5b82600260006101000a81548173ffffffffffffffffffffffffffffffffffffffff021916908373ffffffffffffffffffffffffffffffffffffffff1602179055508273ffffffffffffffffffffffffffffffffffffffff1663128acb0882848786611d5457600173fffd8963efd1fc6a506488495d951d5263988d26611d4f9190613e40565b611d67565b60016401000276a3611d669190613e74565b5b8a604051602001611d789190612d63565b6040516020818303038152906040526040518663ffffffff1660e01b8152600401611da7959493929190613eeb565b60408051808303816000875af1158015611dc5573d6000803e3d6000fd5b505050506040513d601f19601f82011682018060405250810190611de99190613f5a565b5050600173ffffffffffffffffffffffffffffffffffffffff16600260009054906101000a900473ffffffffffffffffffffffffffffffffffffffff1673ffffffffffffffffffffffffffffffffffffffff1614611e7c576040517f08c379a0000000000000000000000000000000000000000000000000000000008152600401611e739061400c565b60405180910390fd5b50505050505050565b6000611e9085611123565b90506000611e9d866114c1565b9050600180831660ff161415611f90576000611eb8876114c1565b905060006002841660ff161415611f2b578073ffffffffffffffffffffffffffffffffffffffff1663d0e30db0856040518263ffffffff1660e01b81526004016000604051808303818588803b158015611f1157600080fd5b505af1158015611f25573d6000803e3d6000fd5b50505050505b3073ffffffffffffffffffffffffffffffffffffffff168273ffffffffffffffffffffffffffffffffffffffff1614611f8a57611f8982858373ffffffffffffffffffffffffffffffffffffffff166110609092919063ffffffff16565b5b506120b4565b60006002831660ff16141561206c573073ffffffffffffffffffffffffffffffffffffffff168573ffffffffffffffffffffffffffffffffffffffff161461200057611fff8530858773ffffffffffffffffffffffffffffffffffffffff1661288f909392919063ffffffff16565b5b8373ffffffffffffffffffffffffffffffffffffffff16632e1a7d4d846040518263ffffffff1660e01b81526004016120399190612cbf565b600060405180830381600087803b15801561205357600080fd5b505af1158015612067573d6000803e3d6000fd5b505050505b8073ffffffffffffffffffffffffffffffffffffffff166108fc479081150290604051600060405180830381858888f193505050501580156120b2573d6000803e3d6000fd5b505b505050505050565b60006120c785611123565b905060006120d4866114c1565b905060008260ff16111561249c57600083146121c1573073ffffffffffffffffffffffffffffffffffffffff168573ffffffffffffffffffffffffffffffffffffffff16141561216e576121697f0000000000000000000000000000000000000000000000000000000000000000848673ffffffffffffffffffffffffffffffffffffffff166110609092919063ffffffff16565b6121bc565b6121bb857f0000000000000000000000000000000000000000000000000000000000000000858773ffffffffffffffffffffffffffffffffffffffff1661288f909392919063ffffffff16565b5b6123d1565b7f000000000000000000000000000000000000000000000000000000000000000073ffffffffffffffffffffffffffffffffffffffff16634ffe34db856040518263ffffffff1660e01b815260040161221a9190612d63565b6040805180830381865afa158015612236573d6000803e3d6000fd5b505050506040513d601f19601f8201168201806040525081019061225a91906140c9565b600001516fffffffffffffffffffffffffffffffff167f000000000000000000000000000000000000000000000000000000000000000073ffffffffffffffffffffffffffffffffffffffff1663df23b45b866040518263ffffffff1660e01b81526004016122c99190612d63565b606060405180830381865afa1580156122e6573d6000803e3d6000fd5b505050506040513d601f19601f8201168201806040525081019061230a919061419a565b604001516fffffffffffffffffffffffffffffffff168573ffffffffffffffffffffffffffffffffffffffff166370a082317f00000000000000000000000000000000000000000000000000000000000000006040518263ffffffff1660e01b81526004016123799190612d63565b602060405180830381865afa158015612396573d6000803e3d6000fd5b505050506040513d601f19601f820116820180604052508101906123ba91906134e2565b6123c491906135d0565b6123ce919061374a565b92505b7f000000000000000000000000000000000000000000000000000000000000000073ffffffffffffffffffffffffffffffffffffffff166302b9446c857f0000000000000000000000000000000000000000000000000000000000000000848760006040518663ffffffff1660e01b8152600401612453959493929190614202565b60408051808303816000875af1158015612471573d6000803e3d6000fd5b505050506040513d601f19601f820116820180604052508101906124959190614255565b5050612681565b600083111561253b577f000000000000000000000000000000000000000000000000000000000000000073ffffffffffffffffffffffffffffffffffffffff1663f18d03cc858730876040518563ffffffff1660e01b81526004016125049493929190614295565b600060405180830381600087803b15801561251e57600080fd5b505af1158015612532573d6000803e3d6000fd5b505050506125da565b7f000000000000000000000000000000000000000000000000000000000000000073ffffffffffffffffffffffffffffffffffffffff1663f7888aec85306040518363ffffffff1660e01b8152600401612596929190613858565b602060405180830381865afa1580156125b3573d6000803e3d6000fd5b505050506040513d601f19601f820116820180604052508101906125d791906134e2565b92505b7f000000000000000000000000000000000000000000000000000000000000000073ffffffffffffffffffffffffffffffffffffffff166397da6d308530846000886040518663ffffffff1660e01b815260040161263c9594939291906142da565b60408051808303816000875af115801561265a573d6000803e3d6000fd5b505050506040513d601f19601f8201168201806040525081019061267e9190614255565b50505b505050505050565b6000612694856114c1565b905060006126a186612918565b90506000831461273d577f000000000000000000000000000000000000000000000000000000000000000073ffffffffffffffffffffffffffffffffffffffff1663f18d03cc858785876040518563ffffffff1660e01b815260040161270a9493929190614295565b600060405180830381600087803b15801561272457600080fd5b505af1158015612738573d6000803e3d6000fd5b505050505b8173ffffffffffffffffffffffffffffffffffffffff1663627dd56a826040518263ffffffff1660e01b8152600401612776919061432d565b6020604051808303816000875af1158015612795573d6000803e3d6000fd5b505050506040513d601f19601f820116820180604052508101906127b991906134e2565b50505050505050565b606082471015612807576040517f08c379a00000000000000000000000000000000000000000000000000000000081526004016127fe906143c1565b60405180910390fd5b6000808673ffffffffffffffffffffffffffffffffffffffff168587604051612830919061326d565b60006040518083038185875af1925050503d806000811461286d576040519150601f19603f3d011682016040523d82523d6000602084013e612872565b606091505b509150915061288387838387612930565b92505050949350505050565b612912846323b872dd60e01b8585856040516024016128b0939291906143e1565b604051602081830303815290604052907bffffffffffffffffffffffffffffffffffffffffffffffffffffffff19166020820180517bffffffffffffffffffffffffffffffffffffffffffffffffffffffff83818316178352505050506113f9565b50505050565b60608151602081019150815180830184525050919050565b606083156129935760008351141561298b5761294b856129a6565b61298a576040517f08c379a000000000000000000000000000000000000000000000000000000000815260040161298190614464565b60405180910390fd5b5b82905061299e565b61299d83836129c9565b5b949350505050565b6000808273ffffffffffffffffffffffffffffffffffffffff163b119050919050565b6000825111156129dc5781518083602001fd5b806040517f08c379a0000000000000000000000000000000000000000000000000000000008152600401612a1091906132c8565b60405180910390fd5b6000604051905090565b600080fd5b600080fd5b600073ffffffffffffffffffffffffffffffffffffffff82169050919050565b6000612a5882612a2d565b9050919050565b612a6881612a4d565b8114612a7357600080fd5b50565b600081359050612a8581612a5f565b92915050565b6000819050919050565b612a9e81612a8b565b8114612aa957600080fd5b50565b600081359050612abb81612a95565b92915050565b600080fd5b600080fd5b6000601f19601f8301169050919050565b7f4e487b7100000000000000000000000000000000000000000000000000000000600052604160045260246000fd5b612b1482612acb565b810181811067ffffffffffffffff82111715612b3357612b32612adc565b5b80604052505050565b6000612b46612a19565b9050612b528282612b0b565b919050565b600067ffffffffffffffff821115612b7257612b71612adc565b5b612b7b82612acb565b9050602081019050919050565b82818337600083830152505050565b6000612baa612ba584612b57565b612b3c565b905082815260208101848484011115612bc657612bc5612ac6565b5b612bd1848285612b88565b509392505050565b600082601f830112612bee57612bed612ac1565b5b8135612bfe848260208601612b97565b91505092915050565b60008060008060008060c08789031215612c2457612c23612a23565b5b6000612c3289828a01612a76565b9650506020612c4389828a01612aac565b9550506040612c5489828a01612a76565b9450506060612c6589828a01612aac565b9350506080612c7689828a01612a76565b92505060a087013567ffffffffffffffff811115612c9757612c96612a28565b5b612ca389828a01612bd9565b9150509295509295509295565b612cb981612a8b565b82525050565b6000602082019050612cd46000830184612cb0565b92915050565b6000819050919050565b6000612cff612cfa612cf584612a2d565b612cda565b612a2d565b9050919050565b6000612d1182612ce4565b9050919050565b6000612d2382612d06565b9050919050565b612d3381612d18565b82525050565b6000602082019050612d4e6000830184612d2a565b92915050565b612d5d81612a4d565b82525050565b6000602082019050612d786000830184612d54565b92915050565b6000612d8982612a2d565b9050919050565b612d9981612d7e565b8114612da457600080fd5b50565b600081359050612db681612d90565b92915050565b600080600080600080600080610100898b031215612ddd57612ddc612a23565b5b6000612deb8b828c01612da7565b9850506020612dfc8b828c01612aac565b9750506040612e0d8b828c01612a76565b9650506060612e1e8b828c01612aac565b9550506080612e2f8b828c01612a76565b94505060a0612e408b828c01612aac565b93505060c0612e518b828c01612a76565b92505060e089013567ffffffffffffffff811115612e7257612e71612a28565b5b612e7e8b828c01612bd9565b9150509295985092959890939650565b60008115159050919050565b612ea381612e8e565b8114612eae57600080fd5b50565b600081359050612ec081612e9a565b92915050565b60008060408385031215612edd57612edc612a23565b5b6000612eeb85828601612a76565b9250506020612efc85828601612eb1565b9150509250929050565b600060208284031215612f1c57612f1b612a23565b5b6000612f2a84828501612a76565b91505092915050565b6000819050919050565b612f4681612f33565b8114612f5157600080fd5b50565b600081359050612f6381612f3d565b92915050565b600080fd5b600080fd5b60008083601f840112612f8957612f88612ac1565b5b8235905067ffffffffffffffff811115612fa657612fa5612f69565b5b602083019150836001820283011115612fc257612fc1612f6e565b5b9250929050565b60008060008060608587031215612fe357612fe2612a23565b5b6000612ff187828801612f54565b945050602061300287828801612f54565b935050604085013567ffffffffffffffff81111561302357613022612a28565b5b61302f87828801612f73565b925092505092959194509250565b600082825260208201905092915050565b7f52503a2063616c6c6572206973206e6f7420746865206f776e6572206f72206160008201527f2070726976696c65646765642075736572000000000000000000000000000000602082015250565b60006130aa60318361303d565b91506130b58261304e565b604082019050919050565b600060208201905081810360008301526130d98161309d565b9050919050565b7f526f75746550726f636573736f72206973206c6f636b65640000000000000000600082015250565b600061311660188361303d565b9150613121826130e0565b602082019050919050565b6000602082019050818103600083015261314581613109565b9050919050565b7f526f75746550726f636573736f72206973207061757365640000000000000000600082015250565b600061318260188361303d565b915061318d8261314c565b602082019050919050565b600060208201905081810360008301526131b181613175565b9050919050565b600081905092915050565b50565b60006131d36000836131b8565b91506131de826131c3565b600082019050919050565b60006131f4826131c6565b9150819050919050565b600081519050919050565b60005b8381101561322757808201518184015260208101905061320c565b83811115613236576000848401525b50505050565b6000613247826131fe565b61325181856131b8565b9350613261818560208601613209565b80840191505092915050565b6000613279828461323c565b915081905092915050565b600081519050919050565b600061329a82613284565b6132a4818561303d565b93506132b4818560208601613209565b6132bd81612acb565b840191505092915050565b600060208201905081810360008301526132e2818461328f565b905092915050565b7f4f776e61626c653a206e6577206f776e657220697320746865207a65726f206160008201527f6464726573730000000000000000000000000000000000000000000000000000602082015250565b600061334660268361303d565b9150613351826132ea565b604082019050919050565b6000602082019050818103600083015261337581613339565b9050919050565b7f526f75746550726f636573736f722e756e697377617056335377617043616c6c60008201527f6261636b3a2063616c6c2066726f6d20756e6b6e6f776e20736f757263650000602082015250565b60006133d8603e8361303d565b91506133e38261337c565b604082019050919050565b60006020820190508181036000830152613407816133cb565b9050919050565b60006020828403121561342457613423612a23565b5b600061343284828501612da7565b91505092915050565b7f526f75746550726f636573736f722e756e697377617056335377617043616c6c60008201527f6261636b3a206e6f7420706f73697469766520616d6f756e7400000000000000602082015250565b600061349760398361303d565b91506134a28261343b565b604082019050919050565b600060208201905081810360008301526134c68161348a565b9050919050565b6000815190506134dc81612a95565b92915050565b6000602082840312156134f8576134f7612a23565b5b6000613506848285016134cd565b91505092915050565b7f526f75746550726f636573736f723a20556e6b6e6f776e20636f6d6d616e642060008201527f636f646500000000000000000000000000000000000000000000000000000000602082015250565b600061356b60248361303d565b91506135768261350f565b604082019050919050565b6000602082019050818103600083015261359a8161355e565b9050919050565b7f4e487b7100000000000000000000000000000000000000000000000000000000600052601160045260246000fd5b60006135db82612a8b565b91506135e683612a8b565b9250827fffffffffffffffffffffffffffffffffffffffffffffffffffffffffffffffff0382111561361b5761361a6135a1565b5b828201905092915050565b7f526f75746550726f636573736f723a204d696e696d616c20696d70757420626160008201527f6c616e63652076696f6c6174696f6e0000000000000000000000000000000000602082015250565b6000613682602f8361303d565b915061368d82613626565b604082019050919050565b600060208201905081810360008301526136b181613675565b9050919050565b7f526f75746550726f636573736f723a204d696e696d616c206f7570757420626160008201527f6c616e63652076696f6c6174696f6e0000000000000000000000000000000000602082015250565b6000613714602f8361303d565b915061371f826136b8565b604082019050919050565b6000602082019050818103600083015261374381613707565b9050919050565b600061375582612a8b565b915061376083612a8b565b925082821015613773576137726135a1565b5b828203905092915050565b60006080820190506137936000830187612d54565b6137a06020830186612cb0565b6137ad6040830185612cb0565b6137ba6060830184612cb0565b95945050505050565b7f4f776e61626c653a2063616c6c6572206973206e6f7420746865206f776e6572600082015250565b60006137f960208361303d565b9150613804826137c3565b602082019050919050565b60006020820190508181036000830152613828816137ec565b9050919050565b60006040820190506138446000830185612d54565b6138516020830184612cb0565b9392505050565b600060408201905061386d6000830185612d54565b61387a6020830184612d54565b9392505050565b7f4e487b7100000000000000000000000000000000000000000000000000000000600052601260045260246000fd5b6000815190506138bf81612e9a565b92915050565b6000602082840312156138db576138da612a23565b5b60006138e9848285016138b0565b91505092915050565b7f5361666545524332303a204552433230206f7065726174696f6e20646964206e60008201527f6f74207375636365656400000000000000000000000000000000000000000000602082015250565b600061394e602a8361303d565b9150613959826138f2565b604082019050919050565b6000602082019050818103600083015261397d81613941565b9050919050565b7f526f75746550726f636573736f723a20556e6b6e6f776e20706f6f6c2074797060008201527f6500000000000000000000000000000000000000000000000000000000000000602082015250565b60006139e060218361303d565b91506139eb82613984565b604082019050919050565b60006020820190508181036000830152613a0f816139d3565b9050919050565b600060ff82169050919050565b613a2c81613a16565b82525050565b6000819050919050565b613a4581613a32565b82525050565b600060e082019050613a60600083018a612d54565b613a6d6020830189612d54565b613a7a6040830188612cb0565b613a876060830187612cb0565b613a946080830186613a23565b613aa160a0830185613a3c565b613aae60c0830184613a3c565b98975050505050505050565b7f5361666545524332303a207065726d697420646964206e6f742073756363656560008201527f6400000000000000000000000000000000000000000000000000000000000000602082015250565b6000613b1660218361303d565b9150613b2182613aba565b604082019050919050565b60006020820190508181036000830152613b4581613b09565b9050919050565b60006dffffffffffffffffffffffffffff82169050919050565b613b6f81613b4c565b8114613b7a57600080fd5b50565b600081519050613b8c81613b66565b92915050565b600063ffffffff82169050919050565b613bab81613b92565b8114613bb657600080fd5b50565b600081519050613bc881613ba2565b92915050565b600080600060608486031215613be757613be6612a23565b5b6000613bf586828701613b7d565b9350506020613c0686828701613b7d565b9250506040613c1786828701613bb9565b9150509250925092565b7f57726f6e6720706f6f6c20726573657276657300000000000000000000000000600082015250565b6000613c5760138361303d565b9150613c6282613c21565b602082019050919050565b60006020820190508181036000830152613c8681613c4a565b9050919050565b6000613c9882612a8b565b9150613ca383612a8b565b9250817fffffffffffffffffffffffffffffffffffffffffffffffffffffffffffffffff0483118215151615613cdc57613cdb6135a1565b5b828202905092915050565b6000613cf282612a8b565b9150613cfd83612a8b565b925082613d0d57613d0c613881565b5b828204905092915050565b600082825260208201905092915050565b6000613d34826131fe565b613d3e8185613d18565b9350613d4e818560208601613209565b613d5781612acb565b840191505092915050565b6000608082019050613d776000830187612cb0565b613d846020830186612cb0565b613d916040830185612d54565b8181036060830152613da38184613d29565b905095945050505050565b7f73776170556e6956333a20756e65787065637465642066726f6d20616464726560008201527f7373000000000000000000000000000000000000000000000000000000000000602082015250565b6000613e0a60228361303d565b9150613e1582613dae565b604082019050919050565b60006020820190508181036000830152613e3981613dfd565b9050919050565b6000613e4b82612a2d565b9150613e5683612a2d565b925082821015613e6957613e686135a1565b5b828203905092915050565b6000613e7f82612a2d565b9150613e8a83612a2d565b92508273ffffffffffffffffffffffffffffffffffffffff03821115613eb357613eb26135a1565b5b828201905092915050565b613ec781612e8e565b82525050565b613ed681612f33565b82525050565b613ee581612a2d565b82525050565b600060a082019050613f006000830188612d54565b613f0d6020830187613ebe565b613f1a6040830186613ecd565b613f276060830185613edc565b8181036080830152613f398184613d29565b90509695505050505050565b600081519050613f5481612f3d565b92915050565b60008060408385031215613f7157613f70612a23565b5b6000613f7f85828601613f45565b9250506020613f9085828601613f45565b9150509250929050565b7f526f75746550726f636573736f722e73776170556e6956333a20756e6578706560008201527f6374656400000000000000000000000000000000000000000000000000000000602082015250565b6000613ff660248361303d565b915061400182613f9a565b604082019050919050565b6000602082019050818103600083015261402581613fe9565b9050919050565b600080fd5b60006fffffffffffffffffffffffffffffffff82169050919050565b61405681614031565b811461406157600080fd5b50565b6000815190506140738161404d565b92915050565b60006040828403121561408f5761408e61402c565b5b6140996040612b3c565b905060006140a984828501614064565b60008301525060206140bd84828501614064565b60208301525092915050565b6000604082840312156140df576140de612a23565b5b60006140ed84828501614079565b91505092915050565b600067ffffffffffffffff82169050919050565b614113816140f6565b811461411e57600080fd5b50565b6000815190506141308161410a565b92915050565b60006060828403121561414c5761414b61402c565b5b6141566060612b3c565b9050600061416684828501614121565b600083015250602061417a84828501614121565b602083015250604061418e84828501614064565b60408301525092915050565b6000606082840312156141b0576141af612a23565b5b60006141be84828501614136565b91505092915050565b6000819050919050565b60006141ec6141e76141e2846141c7565b612cda565b612a8b565b9050919050565b6141fc816141d1565b82525050565b600060a0820190506142176000830188612d54565b6142246020830187612d54565b6142316040830186612d54565b61423e6060830185612cb0565b61424b60808301846141f3565b9695505050505050565b6000806040838503121561426c5761426b612a23565b5b600061427a858286016134cd565b925050602061428b858286016134cd565b9150509250929050565b60006080820190506142aa6000830187612d54565b6142b76020830186612d54565b6142c46040830185612d54565b6142d16060830184612cb0565b95945050505050565b600060a0820190506142ef6000830188612d54565b6142fc6020830187612d54565b6143096040830186612d54565b61431660608301856141f3565b6143236080830184612cb0565b9695505050505050565b600060208201905081810360008301526143478184613d29565b905092915050565b7f416464726573733a20696e73756666696369656e742062616c616e636520666f60008201527f722063616c6c0000000000000000000000000000000000000000000000000000602082015250565b60006143ab60268361303d565b91506143b68261434f565b604082019050919050565b600060208201905081810360008301526143da8161439e565b9050919050565b60006060820190506143f66000830186612d54565b6144036020830185612d54565b6144106040830184612cb0565b949350505050565b7f416464726573733a2063616c6c20746f206e6f6e2d636f6e7472616374000000600082015250565b600061444e601d8361303d565b915061445982614418565b602082019050919050565b6000602082019050818103600083015261447d81614441565b905091905056fea2646970667358221220e7634fa4411ccc28d1a72b57ade37622a31aa81bd430d0e775cbae2829cd0aed64736f6c634300080a0033",
  "linkReferences": {},
  "deployedLinkReferences": {}
}